{
  "contractName": "Loyalty",
  "abi": [
    {
      "constant": false,
      "inputs": [
        {
          "name": "x",
          "type": "uint256"
        }
      ],
      "name": "set",
      "outputs": [],
      "payable": false,
      "stateMutability": "nonpayable",
      "type": "function"
    },
    {
      "constant": true,
      "inputs": [],
      "name": "get",
      "outputs": [
        {
          "name": "",
          "type": "uint256"
        }
      ],
      "payable": false,
      "stateMutability": "view",
      "type": "function"
    },
    {
      "constant": false,
      "inputs": [],
      "name": "addFund",
      "outputs": [
        {
          "name": "",
          "type": "uint256"
        }
      ],
      "payable": true,
      "stateMutability": "payable",
      "type": "function"
    },
    {
      "constant": false,
      "inputs": [],
      "name": "pay",
      "outputs": [],
      "payable": false,
      "stateMutability": "nonpayable",
      "type": "function"
    }
  ],
  "bytecode": "0x608060405234801561001057600080fd5b506101b9806100206000396000f300608060405260043610610062576000357c0100000000000000000000000000000000000000000000000000000000900463ffffffff1680631b9265b81461006757806360fe47b11461007e5780636d4ce63c146100ab578063a2f09dfa146100d6575b600080fd5b34801561007357600080fd5b5061007c6100f4565b005b34801561008a57600080fd5b506100a960048036038101908080359060200190929190505050610145565b005b3480156100b757600080fd5b506100c061014f565b6040518082815260200191505060405180910390f35b6100de61016e565b6040518082815260200191505060405180910390f35b3373ffffffffffffffffffffffffffffffffffffffff166108fc67016345785d8a00009081150290604051600060405180830381858888f19350505050158015610142573d6000803e3d6000fd5b50565b8060008190555050565b60003073ffffffffffffffffffffffffffffffffffffffff1631905090565b60003073ffffffffffffffffffffffffffffffffffffffff16319050905600a165627a7a72305820ef05c187da79589d496071152021d04393f8301ae25eeac7b8e1aaf1a4cd7ba00029",
  "source": "pragma solidity ^0.4.18;\n\ncontract Loyalty {\n  uint storedData;\n\n  function set(uint x) public {\n    storedData = x;\n  }\n\n  function get() public view returns (uint) {\n    return this.balance;\n  }\n\n  function addFund() payable returns (uint) {\n    return this.balance;\n  }\n\n  function pay() {\n    msg.sender.transfer(0.1 ether);\n  }\n}\n",
  "sourcePath": "C:\\dapp\\loyalty-unblocker-server\\client\\contracts\\Loyalty.sol",
  "compiler": {
    "name": "solc",
    "version": "0.4.24+commit.e67f0147.Emscripten.clang"
  },
  "schemaVersion": "2.0.1",
  "updatedAt": "2018-07-11T02:42:09.980Z"
}